:040000000DEF00F010
:0400080050EF0BF0BA
:06001800FF00BDEF0CF03B
:1016000000AC170000000000000000000000000017
:101610000000000002019AAD10EF0BF012EF0BF08A
:1016200013EF0BF09A9D9AA518EF0BF01AEF0BF041
:1016300021EF0BF09A9599858C6B8D6B959D4EEFF4
:101640000BF09AA726EF0BF028EF0BF02DEF0BF025
:101650009A97156A958D4EEF0BF098A932EF0BF023
:1016600034EF0BF045EF0BF099AB39EF0BF03BEF9C
:101670000BF04EEF0BF095BB40EF0BF042EF0BF091
:101680004EEF0BF0958D4EEF0BF099A14AEF0BF05A
:101690004CEF0BF04EEF0BF0958D9A9D9499120044
:1016A000AFA655EF0BF057EF0BF062EF0BF0BAA6B9
:1016B0005CEF0BF05EEF0BF062EF0BF053EC0DF014
:1016C00094EF0BF0AFA067EF0BF069EF0BF074EF46
:1016D0000BF0BAA06EEF0BF070EF0BF074EF0BF0A5
:1016E00050EC0DF094EF0BF0AFA479EF0BF07BEF23
:1016F0000BF084EF0BF0BAA480EF0BF082EF0BF04D
:1017000084EF0BF070EF0BF0AFA289EF0BF08BEFD3
:101710000BF094EF0BF0BAA290EF0BF092EF0BF0FE
:1017200094EF0BF070EF0BF01100020197AB9BEF01
:101730000BF09DEF0BF0A2EF0BF0010E156E979BD7
:10174000D3EF0BF099AFA7EF0BF0A9EF0BF0AEEFD3
:101750000BF0020E156E999FD3EF0BF095A5B3EF2A
:101760000BF0B5EF0BF0BAEF0BF0030E156E95957D
:10177000D3EF0BF095A3BFEF0BF0C1EF0BF0C6EF6B
:101780000BF0040E156E9593D3EF0BF099A7CBEFEA
:101790000BF0CDEF0BF0D2EF0BF0050E156E999715
:1017A000D3EF0BF0156A979994991200010E02017C
:1017B000946F956B966B8C6B8D6B220E906FFE0EFB
:1017C000916F220E926FFE0E936F7F0E9D6F510EE2
:1017D000896F510E886FAF84AF86AF80AF829B85D3
:1017E0009B879781000E0F6E000E106E9B95948F55
:1017F0009B919B95948F050EE82EFED7000000006C
:101800000000000000000000000002019A919A957B
:101810009A9D9A979B8D9B879B851200BE6A030EAB
:10182000C06E0401026B030E126F1A0EC66E0C0E10
:10183000C86E006B0C0E106F016B116B370E036FCF
:101840003F0E136F3F0E046F3F0E146F010E020127
:10185000896F010E886F040E726F100E066F100EE6
:10186000716F210E116F110E706F220E126F040135
:10187000056B066B076B156B166B176B120002017D
:10188000A26BA46BA56BA66BA76BA86BA96BAA6BCD
:10189000B00EAB6F800EAC6F080EAD6F8A0EAE6FE0
:1018A000AF6B2E0EB06FB16B800EB26FB36B000ECC
:1018B000166E000E176E07EC0DF0000E166E000E81
:1018C000176EF9EC0CF0000E166E000E176EEBECB6
:1018D0000CF0000E086E000E076E1200ACEC0CF05F
:1018E000BEB475EF0CF078EF0CF0010E79EF0CF050
:1018F000000EFF0A186E18461846BE501818FB0B4B
:101900001818BE6E090E196E1E0E186EE40EE82E23
:10191000FED7182EFCD7192EFAD700D070EF0CF096
:101920000DEF00F0D69AB490D680000E166E000E21
:10193000176E4BEC0DF0B990D682000E166E000EAD
:10194000176E46EC0DF0BD90D684000E166E000E9C
:10195000176E41EC0DF0120031EC0DF00EEC0CF0B6
:10196000D6EC0BF0DCEC0CF0CDEC0CF03BEC0DF01D
:101970003FEC0CF092EC0CF0120001EE01F1150EB0
:10198000EE6AE806FDE10401080E5D6F000E5E6F71
:10199000000E5F6F00016EEF0CF0820E0001746F9D
:1019A000756B030E766F050E776F000E166E000EC8
:1019B000176E15EC0DF01200820E0001706F716B46
:1019C000020E726F050E736F000E166E000E176E0C
:1019D00023EC0DF0120016501710D8B4F2EF0CF0F3
:1019E000F4EF0CF0F8EF0CF016C501F517C502F591
:1019F000120016501710D8B400EF0DF002EF0DF0E2
:101A000006EF0DF016C503F517C504F512001650C4
:101A10001710D8B40EEF0DF010EF0DF014EF0DF01D
:101A200016C505F517C506F5120016501710D8B4DF
:101A30001CEF0DF01EEF0DF022EF0DF016C511F5A5
:101A400017C512F5120016501710D8B42AEF0DF072
:101A50002CEF0DF030EF0DF016C513F517C514F58A
:101A60001200600E0001AD6FAF6BB36B080EB16F6B
:101A7000B06BAC6B1200800E0001A26F4E0EA06F17
:101A8000120016C509F517C50AF5120016C50BF5A3
:101A900017C50CF5120016C50DF517C50EF5120089
:0C1AA0000AEC0BF0120095EC0BF01200A9
:020000040030CA
:090000008FFFF7FF9FFFFFFFFFD8
:00000001FF
