:040000000DEF00F010
:04000800B7EF0BF053
:06001800FF0004EF0FF0F1
:1016000000701E00002221000000000000A01F4A00
:101610001D0000E02000001A1C00001A21462100D5
:1016200000000000006C2000000002019AAD1BEFDA
:101630000BF01DEF0BF01EEF0BF09A9D9AA523EF18
:101640000BF025EF0BF039EF0BF09A9599858C6B29
:101650008D6B959D02D837EF0BF00500FA6E275081
:10166000FD6E2850FE6EFF6AFA50040E1200B4EFB1
:101670000BF09AA73EEF0BF040EF0BF05FEF0BF093
:101680009A97316A02D84FEF0BF00500FA6E275097
:10169000FD6E2850FE6EFF6AFA50010E1200E80639
:1016A000D8A455EF0BF057EF0BF05BEF0BF00201F6
:1016B000959DB4EF0BF00201958DB4EF0BF098A956
:1016C00064EF0BF066EF0BF091EF0BF099AB6BEF63
:1016D0000BF06DEF0BF0B4EF0BF095BB72EF0BF06E
:1016E00074EF0BF0B4EF0BF002D881EF0BF00500B4
:1016F000FA6E2750FD6E2850FE6EFF6AFA50030EF8
:1017000012000009D8A487EF0BF089EF0BF08DEFE2
:101710000BF00201958DB4EF0BF00201959DB4EF33
:101720000BF099A196EF0BF098EF0BF0B4EF0BF0E4
:1017300002D8A5EF0BF00500FA6E2750FD6E285079
:10174000FE6EFF6AFA50020E1200E806D8A4ABEF54
:101750000BF0ADEF0BF0B1EF0BF00201959DB3EF85
:101760000BF00201958D9A9D020194991200FAC422
:1017700046F5FBC447F5A9A8C0EF0BF0C2EF0BF08C
:10178000CDEF0BF0B4A8C7EF0BF0C9EF0BF0CDEF26
:101790000BF068EC0FF047EF0CF0AFA6D2EF0BF0B8
:1017A000D4EF0BF0DFEF0BF0BAA6D9EF0BF0DBEFC5
:1017B0000BF0DFEF0BF0A0EC10F047EF0CF0AFA058
:1017C000E4EF0BF0E6EF0BF0F1EF0BF0BAA0EBEF6C
:1017D0000BF0EDEF0BF0F1EF0BF09DEC10F047EF9D
:1017E0000CF0AFA4F6EF0BF0F8EF0BF001EF0CF0FC
:1017F000BAA4FDEF0BF0FFEF0BF001EF0CF0EDEFF3
:101800000BF0AFA206EF0CF008EF0CF011EF0CF0AC
:10181000BAA20DEF0CF00FEF0CF011EF0CF0EDEFA2
:101820000BF0ABA816EF0CF018EF0CF023EF0CF058
:10183000B6A81DEF0CF01FEF0CF023EF0CF0C9EC75
:101840000EF047EF0CF0ABAE28EF0CF02AEF0CF0E7
:1018500035EF0CF0B6AE2FEF0CF031EF0CF035EFAA
:101860000CF0E8EC0EF047EF0CF0ADA83AEF0CF0FE
:101870003CEF0CF047EF0CF0B8A841EF0CF043EF51
:101880000CF047EF0CF051EC0FF047EF0CF047C5B0
:10189000FBF446C5FAF41100020197AB52EF0CF0CD
:1018A00054EF0CF067EF0CF0010E316E02D863EFCD
:1018B0000CF00500FA6E2750FD6E2850FE6EFF6A90
:1018C000FA50050E12000201979BD0EF0CF099AF71
:1018D0006CEF0CF06EEF0CF081EF0CF0020E316E3D
:1018E00002D87DEF0CF00500FA6E2750FD6E2850EF
:1018F000FE6EFF6AFA50050E12000201999FD0EFAA
:101900000CF095A586EF0CF088EF0CF09BEF0CF037
:10191000030E316E02D897EF0CF00500FA6E2750D7
:10192000FD6E2850FE6EFF6AFA50050E120002018D
:101930009595D0EF0CF095A3A0EF0CF0A2EF0CF072
:10194000B5EF0CF0040E316E02D8B1EF0CF00500CB
:10195000FA6E2750FD6E2850FE6EFF6AFA50050E93
:10196000120002019593D0EF0CF099A7BAEF0CF09A
:10197000BCEF0CF0CFEF0CF0050E316E02D8CBEFC0
:101980000CF00500FA6E2750FD6E2850FE6EFF6ABF
:10199000FA50050E120002019997D0EF0CF0316A4F
:1019A000979994991200356E32EF0DF02D6AD69EFC
:1019B00005C53EF506C53FF507C540F508C541F527
:1019C00001C542F502C543F503C544F504C545F517
:1019D00013C536F514C537F511C538F512C539F5F7
:1019E0000FC53AF510C53BF50DC53CF50EC53DF5E7
:1019F000D68E41C502F640C503F63FC504F63EC586
:101A000005F645C506F644C507F643C508F642C5C2
:101A100009F6375006010A6F36C50BF639500C6FC0
:101A200038C50DF63B500E6F3AC50FF63D50106F9E
:101A30003CC511F657EF0DF0A3EC10F02E6E010E21
:101A40002D6E57EF0DF0000E2E24D96EDA6A060EB9
:101A5000DA22DF508DEC10F02E2A57EF0DF02D6AB0
:101A600057EF0DF03550336E346A3450000AD8B455
:101A70003CEF0DF057EF0DF03350000AD8B457EF9C
:101A80000DF0010AD8B4D6EF0CF0030AD8B41CEF5D
:101A90000DF0010AD8B423EF0DF0070AD8B42FEFE8
:101AA0000DF0010AD8B42FEF0DF057EF0DF0010E35
:101AB000120044EC10F00009D8B461EF0DF063EFB0
:101AC0000DF096EF0DF0010E2F6E400E3C6E9C0E49
:101AD0003D6E3C501102F3C43EF5F4C43FF51202D2
:101AE000F3503F263D501102F3503F26D0EC0FF04B
:101AF0003E503224016E3F503320026E000E3420DF
:101B0000036E000E3520046E000E326E000E336E32
:101B1000000E346E000E356EA5EC0EF0000E126E47
:101B2000000E116E0D4A0E2A97EF0DF02F6A12006B
:101B30004FEC10F00009D8B4A0EF0DF0A2EF0DF0BB
:101B4000D1EF0DF0010E306EE1EC0FF0400E3A6E69
:101B50009C0E3B6E3A501302F3C43CF5F4C43DF5C1
:101B60001402F3503D263B501302F3503D263250F1
:101B70003C243E6E33503D203F6E3EC505F53FC5CB
:101B800006F5076A086A000E336E000E326E6AECC4
:101B900010F0000E146E000E136E0F4A102AD2EFD2
:101BA0000DF0306A120095EC0FF0800E89EC10F009
:101BB000D68E300E486E1B0E496E28EC10F0B20E19
:101BC000486E1A0E496E1AEC10F0A60E486E190EE9
:101BD000496E36EC10F0340E486E210E496E75ECED
:101BE00010F02E0E486E210E496E70EC10F094EC41
:101BF00010F091EC10F0BA0E0601006FBE0E016FEE
:101C0000150E0501606FC60EE82EFED7602FFCD7BB
:101C1000000000EF0EF00DEF00F0010E0201946FD6
:101C2000956B966B8C6B8D6B280E906FFE0E916F83
:101C3000280E926FFE0E936F7F0E9D6F510E896F6F
:101C4000510E886FAF84AF86AF80AF829B859B8734
:101C50009781000E276E000E286E9B95948F9B91A6
:101C60009B95948F050EE82EFED700000000000023
:101C7000000000000000000002019A919A959A9DD0
:101C80009A979B8D9B879B851200BE6A030EC06E40
:101C90000401026B030E126F1A0EC66E0C0EC86E94
:101CA000006B0C0E106F016B116B370E036F3F0E44
:101CB000136F3F0E046F3F0E146F010E0201896F08
:101CC000010E886F040E726F100E066F100E716F8A
:101CD000210E116F110E706F220E126F0401056B31
:101CE000066B076B156B166B176B12000201A26B6C
:101CF000A46BA56BA66BA76BA86BA96BAA6BB00EA8
:101D0000AB6F800EAC6F080EAD6F8A0EAE6FAF6B0F
:101D10002E0EB06FB16B800EB26FB36B000E486EBB
:101D2000000E496E0CEC10F0000E486E000E496E6D
:101D3000FEEC0FF0000E486E000E496EF0EC0FF056
:101D4000000E1C6E000E1B6E1200030114A5ABEFFB
:101D50000EF0ADEF0EF0C4EF0EF014B1B2EF0EF0D6
:101D6000B5EF0EF0010EB6EF0EF0000E366E1491C8
:101D700033C513F332C512F336B002D0149102D03A
:101D800003011481C8EF0EF033C513F332C512F30B
:101D900012001FC532F520C533F5346A356AA5EC4B
:101DA0000EF01D501E10D8B4D8EF0EF0DAEF0EF082
:101DB000E6EF0EF002D8E6EF0EF00500FA6E1D50C9
:101DC000FD6E1E50FE6EFF6AFA501200B6981200A9
:101DD0000C500301196F0BC518F309500A10D8B441
:101DE000F4EF0EF0F6EF0EF002EF0FF002D802EF74
:101DF0000FF00500FA6E0950FD6E0A50FE6EFF6A84
:101E0000FA501200B69E120001EE00F210EE00F140
:101E1000EE6AE550E150FCE1E250FAE101EE01F139
:101E2000310EEE6AE806FDE10401080E5D6F000E5A
:101E30005E6F000E5F6F0001D3EF0DF0D69AB49085
:101E4000D680000E486E000E496E84EC10F0B990FA
:101E5000D682000E486E000E496E7FEC10F0BD90E9
:101E6000D684000E486E000E496E7AEC10F0120017
:101E700003011491156B166B030E176F630E136F2E
:101E8000BF0E126F1351486E12511F6E48C520F5D8
:101E90004C0E1D6E210E1E6EB698AB88350E146F5B
:101EA0001200B89829502A10D8B459EF0FF05BEF00
:101EB0000FF067EF0FF002D867EF0FF00500FA6E32
:101EC0002950FD6E2A50FE6EFF6AFA501200120071
:101ED000B4982B502C10D8B470EF0FF072EF0FF0B5
:101EE0007EEF0FF002D87EEF0FF00500FA6E2B5058
:101EF000FD6E2C50FE6EFF6AFA5012001200630E47
:101F00000301196FC00E186F730E1B6F1951486EC5
:101F100018510B6E48C50CF54E0E096E210E0A6E57
:101F2000B69EAB8E900E1A6F12005AEC10F045EC74
:101F30000EF00DEC0EF07FEC0FF038EC0FF0BDEC76
:101F40000FF0AAEC0FF064EC10F076EC0EF01EEC43
:101F50000FF01200AD98820E0001746F020E756FC3
:101F6000020E766F050E776F500E486E210E496E89
:101F70001AEC10F0B898AD881200A998820E0001F2
:101F8000706F020E716F030E726F050E736F520E3B
:101F9000486E210E496E28EC10F0B498A988120002
:101FA00012C33BF513C33AF53A50366E3B50386EC8
:101FB00036C539F538C532F539C533F5346A356A71
:101FC000120018C338F519C339F53950346E38503A
:101FD000366E34C537F536C532F537C533F51200E0
:101FE00048504910D8B4F7EF0FF0F9EF0FF0FDEFBC
:101FF0000FF048C515F549C516F5120048504910AF
:10200000D8B405EF10F007EF10F00BEF10F048C553
:1020100017F549C518F5120048504910D8B413EF08
:1020200010F015EF10F019EF10F048C519F549C57B
:102030001AF5120048504910D8B421EF10F023EFE0
:1020400010F027EF10F048C529F549C52AF5120010
:1020500048504910D8B42FEF10F031EF10F035EFA1
:1020600010F048C52BF549C52CF512004850491011
:10207000D8B43DEF10F03FEF10F043EF10F048C53B
:1020800027F549C528F51200000174BD4AEF10F08C
:102090004DEF10F0010E4EEF10F0000E1200000197
:1020A00070BD55EF10F058EF10F0010E59EF10F021
:1020B000000E1200600E0001AD6FAF6BB36B080E27
:1020C000B16FB06BAC6B1200800E0001A26F330ECB
:1020D000A06F120033500301196F32C518F31200BC
:1020E00048C51DF549C51EF5120048C509F549C585
:1020F0000AF5120048C521F549C522F5120048C568
:1021000023F549C524F5120048C525F549C526F52E
:102110001200486E48C5A0F01200326E32C58BF234
:10212000120003011481120003011A8F1200114AD8
:10213000122A1200134A142A120015EC0BF0120096
:102140004CEC0CF0120002018A5112001200120035
:042150001200120067
:020000040030CA
:090000008FFFF7FF9FFFFFFFFFD8
:00000001FF
